{
  "_format": "hh-sol-artifact-1",
  "contractName": "deCertify",
  "sourceName": "contracts/deCertify.sol",
  "abi": [
    {
      "inputs": [],
      "stateMutability": "nonpayable",
      "type": "constructor"
    },
    {
      "inputs": [
        {
          "internalType": "address",
          "name": "owner",
          "type": "address"
        }
      ],
      "name": "OwnableInvalidOwner",
      "type": "error"
    },
    {
      "inputs": [
        {
          "internalType": "address",
          "name": "account",
          "type": "address"
        }
      ],
      "name": "OwnableUnauthorizedAccount",
      "type": "error"
    },
    {
      "anonymous": false,
      "inputs": [
        {
          "indexed": true,
          "internalType": "uint256",
          "name": "certificateId",
          "type": "uint256"
        },
        {
          "indexed": true,
          "internalType": "address",
          "name": "organizationAddress",
          "type": "address"
        },
        {
          "indexed": true,
          "internalType": "address",
          "name": "studentAddress",
          "type": "address"
        },
        {
          "indexed": false,
          "internalType": "string",
          "name": "ipfsHash",
          "type": "string"
        },
        {
          "indexed": false,
          "internalType": "uint256",
          "name": "issuedAt",
          "type": "uint256"
        }
      ],
      "name": "CertificateIssued",
      "type": "event"
    },
    {
      "anonymous": false,
      "inputs": [
        {
          "indexed": true,
          "internalType": "uint256",
          "name": "certificateId",
          "type": "uint256"
        },
        {
          "indexed": true,
          "internalType": "address",
          "name": "organizationAddress",
          "type": "address"
        }
      ],
      "name": "CertificateRevoked",
      "type": "event"
    },
    {
      "anonymous": false,
      "inputs": [
        {
          "indexed": true,
          "internalType": "address",
          "name": "student",
          "type": "address"
        },
        {
          "indexed": true,
          "internalType": "address",
          "name": "organization",
          "type": "address"
        },
        {
          "indexed": false,
          "internalType": "uint256",
          "name": "amount",
          "type": "uint256"
        }
      ],
      "name": "IssuanceFeePaid",
      "type": "event"
    },
    {
      "anonymous": false,
      "inputs": [
        {
          "indexed": true,
          "internalType": "address",
          "name": "organizationAddress",
          "type": "address"
        },
        {
          "indexed": false,
          "internalType": "string",
          "name": "name",
          "type": "string"
        },
        {
          "indexed": false,
          "internalType": "uint256",
          "name": "verificationCharge",
          "type": "uint256"
        },
        {
          "indexed": false,
          "internalType": "uint256",
          "name": "issuanceFee",
          "type": "uint256"
        }
      ],
      "name": "OrganizationRegistered",
      "type": "event"
    },
    {
      "anonymous": false,
      "inputs": [
        {
          "indexed": true,
          "internalType": "address",
          "name": "previousOwner",
          "type": "address"
        },
        {
          "indexed": true,
          "internalType": "address",
          "name": "newOwner",
          "type": "address"
        }
      ],
      "name": "OwnershipTransferred",
      "type": "event"
    },
    {
      "anonymous": false,
      "inputs": [
        {
          "indexed": true,
          "internalType": "address",
          "name": "studentAddress",
          "type": "address"
        },
        {
          "indexed": false,
          "internalType": "string",
          "name": "name",
          "type": "string"
        }
      ],
      "name": "StudentRegistered",
      "type": "event"
    },
    {
      "anonymous": false,
      "inputs": [
        {
          "indexed": true,
          "internalType": "address",
          "name": "verifier",
          "type": "address"
        },
        {
          "indexed": true,
          "internalType": "address",
          "name": "organization",
          "type": "address"
        },
        {
          "indexed": false,
          "internalType": "uint256",
          "name": "amount",
          "type": "uint256"
        }
      ],
      "name": "VerificationChargePaid",
      "type": "event"
    },
    {
      "inputs": [
        {
          "internalType": "uint256",
          "name": "",
          "type": "uint256"
        }
      ],
      "name": "certificates",
      "outputs": [
        {
          "internalType": "uint256",
          "name": "id",
          "type": "uint256"
        },
        {
          "internalType": "address",
          "name": "organizationAddress",
          "type": "address"
        },
        {
          "internalType": "address",
          "name": "studentAddress",
          "type": "address"
        },
        {
          "internalType": "string",
          "name": "ipfsHash",
          "type": "string"
        },
        {
          "internalType": "uint256",
          "name": "issuedAt",
          "type": "uint256"
        },
        {
          "internalType": "bool",
          "name": "isRevoked",
          "type": "bool"
        }
      ],
      "stateMutability": "view",
      "type": "function"
    },
    {
      "inputs": [
        {
          "internalType": "uint256",
          "name": "_certificateId",
          "type": "uint256"
        }
      ],
      "name": "getCertificateDetails",
      "outputs": [
        {
          "internalType": "uint256",
          "name": "id",
          "type": "uint256"
        },
        {
          "internalType": "address",
          "name": "organizationAddress",
          "type": "address"
        },
        {
          "internalType": "address",
          "name": "studentAddress",
          "type": "address"
        },
        {
          "internalType": "string",
          "name": "ipfsHash",
          "type": "string"
        },
        {
          "internalType": "uint256",
          "name": "issuedAt",
          "type": "uint256"
        },
        {
          "internalType": "bool",
          "name": "isRevoked",
          "type": "bool"
        }
      ],
      "stateMutability": "view",
      "type": "function"
    },
    {
      "inputs": [
        {
          "internalType": "address",
          "name": "_studentAddress",
          "type": "address"
        },
        {
          "internalType": "string",
          "name": "_ipfsHash",
          "type": "string"
        }
      ],
      "name": "issueCertificate",
      "outputs": [],
      "stateMutability": "payable",
      "type": "function"
    },
    {
      "inputs": [
        {
          "internalType": "address",
          "name": "",
          "type": "address"
        }
      ],
      "name": "organizations",
      "outputs": [
        {
          "internalType": "string",
          "name": "name",
          "type": "string"
        },
        {
          "internalType": "address",
          "name": "walletAddress",
          "type": "address"
        },
        {
          "internalType": "bool",
          "name": "isRegistered",
          "type": "bool"
        },
        {
          "internalType": "uint256",
          "name": "verificationCharge",
          "type": "uint256"
        },
        {
          "internalType": "uint256",
          "name": "issuanceFee",
          "type": "uint256"
        }
      ],
      "stateMutability": "view",
      "type": "function"
    },
    {
      "inputs": [],
      "name": "owner",
      "outputs": [
        {
          "internalType": "address",
          "name": "",
          "type": "address"
        }
      ],
      "stateMutability": "view",
      "type": "function"
    },
    {
      "inputs": [
        {
          "internalType": "string",
          "name": "_name",
          "type": "string"
        },
        {
          "internalType": "uint256",
          "name": "_verificationCharge",
          "type": "uint256"
        },
        {
          "internalType": "uint256",
          "name": "_issuanceFee",
          "type": "uint256"
        }
      ],
      "name": "registerOrganization",
      "outputs": [],
      "stateMutability": "nonpayable",
      "type": "function"
    },
    {
      "inputs": [
        {
          "internalType": "string",
          "name": "_name",
          "type": "string"
        }
      ],
      "name": "registerStudent",
      "outputs": [],
      "stateMutability": "nonpayable",
      "type": "function"
    },
    {
      "inputs": [],
      "name": "renounceOwnership",
      "outputs": [],
      "stateMutability": "nonpayable",
      "type": "function"
    },
    {
      "inputs": [
        {
          "internalType": "uint256",
          "name": "_certificateId",
          "type": "uint256"
        }
      ],
      "name": "revokeCertificate",
      "outputs": [],
      "stateMutability": "nonpayable",
      "type": "function"
    },
    {
      "inputs": [
        {
          "internalType": "address",
          "name": "",
          "type": "address"
        }
      ],
      "name": "students",
      "outputs": [
        {
          "internalType": "string",
          "name": "name",
          "type": "string"
        },
        {
          "internalType": "address",
          "name": "walletAddress",
          "type": "address"
        },
        {
          "internalType": "bool",
          "name": "isRegistered",
          "type": "bool"
        }
      ],
      "stateMutability": "view",
      "type": "function"
    },
    {
      "inputs": [
        {
          "internalType": "address",
          "name": "newOwner",
          "type": "address"
        }
      ],
      "name": "transferOwnership",
      "outputs": [],
      "stateMutability": "nonpayable",
      "type": "function"
    },
    {
      "inputs": [
        {
          "internalType": "uint256",
          "name": "_certificateId",
          "type": "uint256"
        }
      ],
      "name": "verifyCertificate",
      "outputs": [
        {
          "internalType": "bool",
          "name": "",
          "type": "bool"
        },
        {
          "internalType": "string",
          "name": "",
          "type": "string"
        }
      ],
      "stateMutability": "payable",
      "type": "function"
    },
    {
      "inputs": [],
      "name": "withdraw",
      "outputs": [],
      "stateMutability": "nonpayable",
      "type": "function"
    }
  ],
  "bytecode": "0x60806040523480156200001157600080fd5b5033600073ffffffffffffffffffffffffffffffffffffffff168173ffffffffffffffffffffffffffffffffffffffff1603620000885760006040517f1e4fbdf70000000000000000000000000000000000000000000000000000000081526004016200007f9190620001b1565b60405180910390fd5b6200009981620000a860201b60201c565b506001600481905550620001ce565b60008060009054906101000a900473ffffffffffffffffffffffffffffffffffffffff169050816000806101000a81548173ffffffffffffffffffffffffffffffffffffffff021916908373ffffffffffffffffffffffffffffffffffffffff1602179055508173ffffffffffffffffffffffffffffffffffffffff168173ffffffffffffffffffffffffffffffffffffffff167f8be0079c531659141344cd1fd0a4f28419497f9722a3daafe3b4186f6b6457e060405160405180910390a35050565b600073ffffffffffffffffffffffffffffffffffffffff82169050919050565b600062000199826200016c565b9050919050565b620001ab816200018c565b82525050565b6000602082019050620001c86000830184620001a0565b92915050565b612c2d80620001de6000396000f3fe6080604052600436106100c25760003560e01c8063715018a61161007f578063a6c807a911610059578063a6c807a91461024f578063a901fe5e1461028e578063bb721aab146102d0578063f2fde38b146102ec576100c2565b8063715018a6146101e457806371e17445146101fb5780638da5cb5b14610224576100c2565b806306f5497e146100c75780631692a942146100f05780633ccfd60b146101215780635a1f7406146101385780635eb1836d14610179578063663b3e22146101a2575b600080fd5b3480156100d357600080fd5b506100ee60048036038101906100e99190611b90565b610315565b005b61010a60048036038101906101059190611b90565b6105c7565b604051610118929190611c68565b60405180910390f35b34801561012d57600080fd5b50610136610922565b005b34801561014457600080fd5b5061015f600480360381019061015a9190611cf6565b6109c3565b604051610170959493929190611d41565b60405180910390f35b34801561018557600080fd5b506101a0600480360381019061019b9190611e00565b610aae565b005b3480156101ae57600080fd5b506101c960048036038101906101c49190611b90565b610dc5565b6040516101db96959493929190611e74565b60405180910390f35b3480156101f057600080fd5b506101f9610ed6565b005b34801561020757600080fd5b50610222600480360381019061021d9190611edc565b610eea565b005b34801561023057600080fd5b506102396111db565b6040516102469190611f29565b60405180910390f35b34801561025b57600080fd5b5061027660048036038101906102719190611cf6565b611204565b60405161028593929190611f44565b60405180910390f35b34801561029a57600080fd5b506102b560048036038101906102b09190611b90565b6112e3565b6040516102c796959493929190611e74565b60405180910390f35b6102ea60048036038101906102e59190611f82565b6114b5565b005b3480156102f857600080fd5b50610313600480360381019061030e9190611cf6565b611977565b005b600160003373ffffffffffffffffffffffffffffffffffffffff1673ffffffffffffffffffffffffffffffffffffffff16815260200190815260200160002060010160149054906101000a900460ff166103a4576040517f08c379a000000000000000000000000000000000000000000000000000000000815260040161039b90612054565b60405180910390fd5b600073ffffffffffffffffffffffffffffffffffffffff166003600083815260200190815260200160002060010160009054906101000a900473ffffffffffffffffffffffffffffffffffffffff1673ffffffffffffffffffffffffffffffffffffffff1603610449576040517f08c379a0000000000000000000000000000000000000000000000000000000008152600401610440906120c0565b60405180910390fd5b3373ffffffffffffffffffffffffffffffffffffffff166003600083815260200190815260200160002060010160009054906101000a900473ffffffffffffffffffffffffffffffffffffffff1673ffffffffffffffffffffffffffffffffffffffff16146104ed576040517f08c379a00000000000000000000000000000000000000000000000000000000081526004016104e490612152565b60405180910390fd5b6003600082815260200190815260200160002060050160009054906101000a900460ff1615610551576040517f08c379a0000000000000000000000000000000000000000000000000000000008152600401610548906121be565b60405180910390fd5b60016003600083815260200190815260200160002060050160006101000a81548160ff0219169083151502179055503373ffffffffffffffffffffffffffffffffffffffff16817f325c62e70cfaa61cf0709d9607ea9d8451b235297c4b47c65ff6a6449c9faca460405160405180910390a350565b60006060600073ffffffffffffffffffffffffffffffffffffffff166003600085815260200190815260200160002060010160009054906101000a900473ffffffffffffffffffffffffffffffffffffffff1673ffffffffffffffffffffffffffffffffffffffff1603610670576040517f08c379a0000000000000000000000000000000000000000000000000000000008152600401610667906120c0565b60405180910390fd5b60006003600085815260200190815260200160002090508060050160009054906101000a900460ff16156106d9576040517f08c379a00000000000000000000000000000000000000000000000000000000081526004016106d09061222a565b60405180910390fd5b6000600160008360010160009054906101000a900473ffffffffffffffffffffffffffffffffffffffff1673ffffffffffffffffffffffffffffffffffffffff1673ffffffffffffffffffffffffffffffffffffffff16815260200190815260200160002060020154905080341015610787576040517f08c379a000000000000000000000000000000000000000000000000000000000815260040161077e906122bc565b60405180910390fd5b6000811115610885578160010160009054906101000a900473ffffffffffffffffffffffffffffffffffffffff1673ffffffffffffffffffffffffffffffffffffffff166108fc349081150290604051600060405180830381858888f193505050501580156107fa573d6000803e3d6000fd5b508160010160009054906101000a900473ffffffffffffffffffffffffffffffffffffffff1673ffffffffffffffffffffffffffffffffffffffff163373ffffffffffffffffffffffffffffffffffffffff167f612c6edfc2ceb1b829fffd25b052cb11f997ce431861f6919a66b0b40242a68a3460405161087c91906122dc565b60405180910390a35b60018260030180805461089790612326565b80601f01602080910402602001604051908101604052809291908181526020018280546108c390612326565b80156109105780601f106108e557610100808354040283529160200191610910565b820191906000526020600020905b8154815290600101906020018083116108f357829003601f168201915b50505050509050935093505050915091565b61092a6119fd565b600047905060008111610972576040517f08c379a0000000000000000000000000000000000000000000000000000000008152600401610969906123a3565b60405180910390fd5b61097a6111db565b73ffffffffffffffffffffffffffffffffffffffff166108fc829081150290604051600060405180830381858888f193505050501580156109bf573d6000803e3d6000fd5b5050565b60016020528060005260406000206000915090508060000180546109e690612326565b80601f0160208091040260200160405190810160405280929190818152602001828054610a1290612326565b8015610a5f5780601f10610a3457610100808354040283529160200191610a5f565b820191906000526020600020905b815481529060010190602001808311610a4257829003601f168201915b5050505050908060010160009054906101000a900473ffffffffffffffffffffffffffffffffffffffff16908060010160149054906101000a900460ff16908060020154908060030154905085565b600160003373ffffffffffffffffffffffffffffffffffffffff1673ffffffffffffffffffffffffffffffffffffffff16815260200190815260200160002060010160149054906101000a900460ff1615610b3e576040517f08c379a0000000000000000000000000000000000000000000000000000000008152600401610b359061240f565b60405180910390fd5b60008484905011610b84576040517f08c379a0000000000000000000000000000000000000000000000000000000008152600401610b7b906124a1565b60405180910390fd5b600260003373ffffffffffffffffffffffffffffffffffffffff1673ffffffffffffffffffffffffffffffffffffffff16815260200190815260200160002060010160149054906101000a900460ff1615610c14576040517f08c379a0000000000000000000000000000000000000000000000000000000008152600401610c0b90612533565b60405180910390fd5b6040518060a0016040528085858080601f016020809104026020016040519081016040528093929190818152602001838380828437600081840152601f19601f8201169050808301925050505050505081526020013373ffffffffffffffffffffffffffffffffffffffff16815260200160011515815260200183815260200182815250600160003373ffffffffffffffffffffffffffffffffffffffff1673ffffffffffffffffffffffffffffffffffffffff1681526020019081526020016000206000820151816000019081610cec919061272e565b5060208201518160010160006101000a81548173ffffffffffffffffffffffffffffffffffffffff021916908373ffffffffffffffffffffffffffffffffffffffff16021790555060408201518160010160146101000a81548160ff02191690831515021790555060608201518160020155608082015181600301559050503373ffffffffffffffffffffffffffffffffffffffff167f5e6cafab9001c810e3c3931fa92ad22a65bbe29cde3b6d6d1fb7cc891a1c890985858585604051610db7949392919061283c565b60405180910390a250505050565b60036020528060005260406000206000915090508060000154908060010160009054906101000a900473ffffffffffffffffffffffffffffffffffffffff16908060020160009054906101000a900473ffffffffffffffffffffffffffffffffffffffff1690806003018054610e3a90612326565b80601f0160208091040260200160405190810160405280929190818152602001828054610e6690612326565b8015610eb35780601f10610e8857610100808354040283529160200191610eb3565b820191906000526020600020905b815481529060010190602001808311610e9657829003601f168201915b5050505050908060040154908060050160009054906101000a900460ff16905086565b610ede6119fd565b610ee86000611a84565b565b600260003373ffffffffffffffffffffffffffffffffffffffff1673ffffffffffffffffffffffffffffffffffffffff16815260200190815260200160002060010160149054906101000a900460ff1615610f7a576040517f08c379a0000000000000000000000000000000000000000000000000000000008152600401610f71906128c8565b60405180910390fd5b60008282905011610fc0576040517f08c379a0000000000000000000000000000000000000000000000000000000008152600401610fb790612934565b60405180910390fd5b600160003373ffffffffffffffffffffffffffffffffffffffff1673ffffffffffffffffffffffffffffffffffffffff16815260200190815260200160002060010160149054906101000a900460ff1615611050576040517f08c379a0000000000000000000000000000000000000000000000000000000008152600401611047906129c6565b60405180910390fd5b604051806060016040528083838080601f016020809104026020016040519081016040528093929190818152602001838380828437600081840152601f19601f8201169050808301925050505050505081526020013373ffffffffffffffffffffffffffffffffffffffff16815260200160011515815250600260003373ffffffffffffffffffffffffffffffffffffffff1673ffffffffffffffffffffffffffffffffffffffff168152602001908152602001600020600082015181600001908161111c919061272e565b5060208201518160010160006101000a81548173ffffffffffffffffffffffffffffffffffffffff021916908373ffffffffffffffffffffffffffffffffffffffff16021790555060408201518160010160146101000a81548160ff0219169083151502179055509050503373ffffffffffffffffffffffffffffffffffffffff167fc1b20826100814ba286ac576fe980df1dbbcef3d904bb81f3d69a0e8280dc11483836040516111cf9291906129e6565b60405180910390a25050565b60008060009054906101000a900473ffffffffffffffffffffffffffffffffffffffff16905090565b600260205280600052604060002060009150905080600001805461122790612326565b80601f016020809104026020016040519081016040528092919081815260200182805461125390612326565b80156112a05780601f10611275576101008083540402835291602001916112a0565b820191906000526020600020905b81548152906001019060200180831161128357829003601f168201915b5050505050908060010160009054906101000a900473ffffffffffffffffffffffffffffffffffffffff16908060010160149054906101000a900460ff16905083565b60008060006060600080600073ffffffffffffffffffffffffffffffffffffffff166003600089815260200190815260200160002060010160009054906101000a900473ffffffffffffffffffffffffffffffffffffffff1673ffffffffffffffffffffffffffffffffffffffff1603611392576040517f08c379a0000000000000000000000000000000000000000000000000000000008152600401611389906120c0565b60405180910390fd5b600060036000898152602001908152602001600020905080600001548160010160009054906101000a900473ffffffffffffffffffffffffffffffffffffffff168260020160009054906101000a900473ffffffffffffffffffffffffffffffffffffffff168360030184600401548560050160009054906101000a900460ff1682805461141f90612326565b80601f016020809104026020016040519081016040528092919081815260200182805461144b90612326565b80156114985780601f1061146d57610100808354040283529160200191611498565b820191906000526020600020905b81548152906001019060200180831161147b57829003601f168201915b505050505092509650965096509650965096505091939550919395565b600160003373ffffffffffffffffffffffffffffffffffffffff1673ffffffffffffffffffffffffffffffffffffffff16815260200190815260200160002060010160149054906101000a900460ff16611544576040517f08c379a000000000000000000000000000000000000000000000000000000000815260040161153b90612054565b60405180910390fd5b600260008473ffffffffffffffffffffffffffffffffffffffff1673ffffffffffffffffffffffffffffffffffffffff16815260200190815260200160002060010160149054906101000a900460ff166115d3576040517f08c379a00000000000000000000000000000000000000000000000000000000081526004016115ca90612a56565b60405180910390fd5b60008282905011611619576040517f08c379a000000000000000000000000000000000000000000000000000000000815260040161161090612ac2565b60405180910390fd5b6000600160003373ffffffffffffffffffffffffffffffffffffffff1673ffffffffffffffffffffffffffffffffffffffff168152602001908152602001600020600301549050803410156116a3576040517f08c379a000000000000000000000000000000000000000000000000000000000815260040161169a90612b2e565b60405180910390fd5b6000811115611759573373ffffffffffffffffffffffffffffffffffffffff166108fc349081150290604051600060405180830381858888f193505050501580156116f2573d6000803e3d6000fd5b503373ffffffffffffffffffffffffffffffffffffffff168473ffffffffffffffffffffffffffffffffffffffff167f9174ea8f17336589c72eb0093f36773bdcf1212e0189473fae5623b6dd1901533460405161175091906122dc565b60405180910390a35b600060045490506040518060c001604052808281526020013373ffffffffffffffffffffffffffffffffffffffff1681526020018673ffffffffffffffffffffffffffffffffffffffff16815260200185858080601f016020809104026020016040519081016040528093929190818152602001838380828437600081840152601f19601f82011690508083019250505050505050815260200142815260200160001515815250600360008381526020019081526020016000206000820151816000015560208201518160010160006101000a81548173ffffffffffffffffffffffffffffffffffffffff021916908373ffffffffffffffffffffffffffffffffffffffff16021790555060408201518160020160006101000a81548173ffffffffffffffffffffffffffffffffffffffff021916908373ffffffffffffffffffffffffffffffffffffffff16021790555060608201518160030190816118c0919061272e565b506080820151816004015560a08201518160050160006101000a81548160ff0219169083151502179055509050506004600081548092919061190190612b7d565b91905055508473ffffffffffffffffffffffffffffffffffffffff163373ffffffffffffffffffffffffffffffffffffffff16827ff677e82fac9d852bc5fc4e5f1c53e0d88e4c55767af3a60dcb0e1accb716ea6b87874260405161196893929190612bc5565b60405180910390a45050505050565b61197f6119fd565b600073ffffffffffffffffffffffffffffffffffffffff168173ffffffffffffffffffffffffffffffffffffffff16036119f15760006040517f1e4fbdf70000000000000000000000000000000000000000000000000000000081526004016119e89190611f29565b60405180910390fd5b6119fa81611a84565b50565b611a05611b48565b73ffffffffffffffffffffffffffffffffffffffff16611a236111db565b73ffffffffffffffffffffffffffffffffffffffff1614611a8257611a46611b48565b6040517f118cdaa7000000000000000000000000000000000000000000000000000000008152600401611a799190611f29565b60405180910390fd5b565b60008060009054906101000a900473ffffffffffffffffffffffffffffffffffffffff169050816000806101000a81548173ffffffffffffffffffffffffffffffffffffffff021916908373ffffffffffffffffffffffffffffffffffffffff1602179055508173ffffffffffffffffffffffffffffffffffffffff168173ffffffffffffffffffffffffffffffffffffffff167f8be0079c531659141344cd1fd0a4f28419497f9722a3daafe3b4186f6b6457e060405160405180910390a35050565b600033905090565b600080fd5b600080fd5b6000819050919050565b611b6d81611b5a565b8114611b7857600080fd5b50565b600081359050611b8a81611b64565b92915050565b600060208284031215611ba657611ba5611b50565b5b6000611bb484828501611b7b565b91505092915050565b60008115159050919050565b611bd281611bbd565b82525050565b600081519050919050565b600082825260208201905092915050565b60005b83811015611c12578082015181840152602081019050611bf7565b60008484015250505050565b6000601f19601f8301169050919050565b6000611c3a82611bd8565b611c448185611be3565b9350611c54818560208601611bf4565b611c5d81611c1e565b840191505092915050565b6000604082019050611c7d6000830185611bc9565b8181036020830152611c8f8184611c2f565b90509392505050565b600073ffffffffffffffffffffffffffffffffffffffff82169050919050565b6000611cc382611c98565b9050919050565b611cd381611cb8565b8114611cde57600080fd5b50565b600081359050611cf081611cca565b92915050565b600060208284031215611d0c57611d0b611b50565b5b6000611d1a84828501611ce1565b91505092915050565b611d2c81611cb8565b82525050565b611d3b81611b5a565b82525050565b600060a0820190508181036000830152611d5b8188611c2f565b9050611d6a6020830187611d23565b611d776040830186611bc9565b611d846060830185611d32565b611d916080830184611d32565b9695505050505050565b600080fd5b600080fd5b600080fd5b60008083601f840112611dc057611dbf611d9b565b5b8235905067ffffffffffffffff811115611ddd57611ddc611da0565b5b602083019150836001820283011115611df957611df8611da5565b5b9250929050565b60008060008060608587031215611e1a57611e19611b50565b5b600085013567ffffffffffffffff811115611e3857611e37611b55565b5b611e4487828801611daa565b94509450506020611e5787828801611b7b565b9250506040611e6887828801611b7b565b91505092959194509250565b600060c082019050611e896000830189611d32565b611e966020830188611d23565b611ea36040830187611d23565b8181036060830152611eb58186611c2f565b9050611ec46080830185611d32565b611ed160a0830184611bc9565b979650505050505050565b60008060208385031215611ef357611ef2611b50565b5b600083013567ffffffffffffffff811115611f1157611f10611b55565b5b611f1d85828601611daa565b92509250509250929050565b6000602082019050611f3e6000830184611d23565b92915050565b60006060820190508181036000830152611f5e8186611c2f565b9050611f6d6020830185611d23565b611f7a6040830184611bc9565b949350505050565b600080600060408486031215611f9b57611f9a611b50565b5b6000611fa986828701611ce1565b935050602084013567ffffffffffffffff811115611fca57611fc9611b55565b5b611fd686828701611daa565b92509250509250925092565b7f43616c6c6572206973206e6f7420612072656769737465726564206f7267616e60008201527f697a6174696f6e2e000000000000000000000000000000000000000000000000602082015250565b600061203e602883611be3565b915061204982611fe2565b604082019050919050565b6000602082019050818103600083015261206d81612031565b9050919050565b7f436572746966696361746520646f6573206e6f742065786973742e0000000000600082015250565b60006120aa601b83611be3565b91506120b582612074565b602082019050919050565b600060208201905081810360008301526120d98161209d565b9050919050565b7f4f6e6c79207468652069737375696e67206f7267616e697a6174696f6e20636160008201527f6e207265766f6b6520746869732063657274696669636174652e000000000000602082015250565b600061213c603a83611be3565b9150612147826120e0565b604082019050919050565b6000602082019050818103600083015261216b8161212f565b9050919050565b7f436572746966696361746520697320616c7265616479207265766f6b65642e00600082015250565b60006121a8601f83611be3565b91506121b382612172565b602082019050919050565b600060208201905081810360008301526121d78161219b565b9050919050565b7f436572746966696361746520686173206265656e207265766f6b65642e000000600082015250565b6000612214601d83611be3565b915061221f826121de565b602082019050919050565b6000602082019050818103600083015261224381612207565b9050919050565b7f496e73756666696369656e7420766572696669636174696f6e2063686172676560008201527f20706169642e0000000000000000000000000000000000000000000000000000602082015250565b60006122a6602683611be3565b91506122b18261224a565b604082019050919050565b600060208201905081810360008301526122d581612299565b9050919050565b60006020820190506122f16000830184611d32565b92915050565b7f4e487b7100000000000000000000000000000000000000000000000000000000600052602260045260246000fd5b6000600282049050600182168061233e57607f821691505b602082108103612351576123506122f7565b5b50919050565b7f4e6f2066756e647320746f2077697468647261772e0000000000000000000000600082015250565b600061238d601583611be3565b915061239882612357565b602082019050919050565b600060208201905081810360008301526123bc81612380565b9050919050565b7f4f7267616e697a6174696f6e20616c726561647920726567697374657265642e600082015250565b60006123f9602083611be3565b9150612404826123c3565b602082019050919050565b60006020820190508181036000830152612428816123ec565b9050919050565b7f4f7267616e697a6174696f6e206e616d652063616e6e6f7420626520656d707460008201527f792e000000000000000000000000000000000000000000000000000000000000602082015250565b600061248b602283611be3565b91506124968261242f565b604082019050919050565b600060208201905081810360008301526124ba8161247e565b9050919050565b7f4164647265737320616c7265616479207265676973746572656420617320612060008201527f73747564656e742e000000000000000000000000000000000000000000000000602082015250565b600061251d602883611be3565b9150612528826124c1565b604082019050919050565b6000602082019050818103600083015261254c81612510565b9050919050565b7f4e487b7100000000000000000000000000000000000000000000000000000000600052604160045260246000fd5b60008190508160005260206000209050919050565b60006020601f8301049050919050565b600082821b905092915050565b6000600883026125e47fffffffffffffffffffffffffffffffffffffffffffffffffffffffffffffffff826125a7565b6125ee86836125a7565b95508019841693508086168417925050509392505050565b6000819050919050565b600061262b61262661262184611b5a565b612606565b611b5a565b9050919050565b6000819050919050565b61264583612610565b61265961265182612632565b8484546125b4565b825550505050565b600090565b61266e612661565b61267981848461263c565b505050565b5b8181101561269d57612692600082612666565b60018101905061267f565b5050565b601f8211156126e2576126b381612582565b6126bc84612597565b810160208510156126cb578190505b6126df6126d785612597565b83018261267e565b50505b505050565b600082821c905092915050565b6000612705600019846008026126e7565b1980831691505092915050565b600061271e83836126f4565b9150826002028217905092915050565b61273782611bd8565b67ffffffffffffffff8111156127505761274f612553565b5b61275a8254612326565b6127658282856126a1565b600060209050601f8311600181146127985760008415612786578287015190505b6127908582612712565b8655506127f8565b601f1984166127a686612582565b60005b828110156127ce578489015182556001820191506020850194506020810190506127a9565b868310156127eb57848901516127e7601f8916826126f4565b8355505b6001600288020188555050505b505050505050565b82818337600083830152505050565b600061281b8385611be3565b9350612828838584612800565b61283183611c1e565b840190509392505050565b6000606082019050818103600083015261285781868861280f565b90506128666020830185611d32565b6128736040830184611d32565b95945050505050565b7f53747564656e7420616c726561647920726567697374657265642e0000000000600082015250565b60006128b2601b83611be3565b91506128bd8261287c565b602082019050919050565b600060208201905081810360008301526128e1816128a5565b9050919050565b7f53747564656e74206e616d652063616e6e6f7420626520656d7074792e000000600082015250565b600061291e601d83611be3565b9150612929826128e8565b602082019050919050565b6000602082019050818103600083015261294d81612911565b9050919050565b7f4164647265737320616c7265616479207265676973746572656420617320616e60008201527f206f7267616e697a6174696f6e2e000000000000000000000000000000000000602082015250565b60006129b0602e83611be3565b91506129bb82612954565b604082019050919050565b600060208201905081810360008301526129df816129a3565b9050919050565b60006020820190508181036000830152612a0181848661280f565b90509392505050565b7f53747564656e74206e6f7420726567697374657265642e000000000000000000600082015250565b6000612a40601783611be3565b9150612a4b82612a0a565b602082019050919050565b60006020820190508181036000830152612a6f81612a33565b9050919050565b7f4950465320686173682063616e6e6f7420626520656d7074792e000000000000600082015250565b6000612aac601a83611be3565b9150612ab782612a76565b602082019050919050565b60006020820190508181036000830152612adb81612a9f565b9050919050565b7f496e73756666696369656e742069737375616e63652066656520706169642e00600082015250565b6000612b18601f83611be3565b9150612b2382612ae2565b602082019050919050565b60006020820190508181036000830152612b4781612b0b565b9050919050565b7f4e487b7100000000000000000000000000000000000000000000000000000000600052601160045260246000fd5b6000612b8882611b5a565b91507fffffffffffffffffffffffffffffffffffffffffffffffffffffffffffffffff8203612bba57612bb9612b4e565b5b600182019050919050565b60006040820190508181036000830152612be081858761280f565b9050612bef6020830184611d32565b94935050505056fea26469706673582212206694b273d012558d909b314411ef82143317fd66c7bc0665cf70886beed20c7f64736f6c63430008180033",
  "linkReferences": {},
  "deployedLinkReferences": {}
}